{
  "contractName": "ExchangeCurrency",
  "abi": [
    {
      "inputs": [],
      "payable": false,
      "stateMutability": "nonpayable",
      "type": "constructor"
    },
    {
      "anonymous": false,
      "inputs": [
        {
          "indexed": true,
          "internalType": "address",
          "name": "from",
          "type": "address"
        },
        {
          "indexed": true,
          "internalType": "address",
          "name": "to",
          "type": "address"
        },
        {
          "indexed": false,
          "internalType": "uint256",
          "name": "value",
          "type": "uint256"
        }
      ],
      "name": "Transfer",
      "type": "event"
    },
    {
      "anonymous": false,
      "inputs": [
        {
          "indexed": false,
          "internalType": "address payable",
          "name": "owner1",
          "type": "address"
        },
        {
          "indexed": false,
          "internalType": "address",
          "name": "owner2",
          "type": "address"
        },
        {
          "indexed": false,
          "internalType": "bool",
          "name": "val",
          "type": "bool"
        }
      ],
      "name": "test",
      "type": "event"
    },
    {
      "constant": true,
      "inputs": [
        {
          "internalType": "address",
          "name": "",
          "type": "address"
        }
      ],
      "name": "accounts",
      "outputs": [
        {
          "internalType": "uint256",
          "name": "tokens",
          "type": "uint256"
        },
        {
          "internalType": "bool",
          "name": "isInGame",
          "type": "bool"
        },
        {
          "internalType": "bool",
          "name": "isValid",
          "type": "bool"
        }
      ],
      "payable": false,
      "stateMutability": "view",
      "type": "function"
    },
    {
      "constant": false,
      "inputs": [
        {
          "internalType": "uint256",
          "name": "nTokens",
          "type": "uint256"
        }
      ],
      "name": "buyTokens",
      "outputs": [],
      "payable": true,
      "stateMutability": "payable",
      "type": "function"
    },
    {
      "constant": false,
      "inputs": [
        {
          "internalType": "uint256",
          "name": "nTokens",
          "type": "uint256"
        }
      ],
      "name": "sellTokens",
      "outputs": [],
      "payable": true,
      "stateMutability": "payable",
      "type": "function"
    },
    {
      "constant": true,
      "inputs": [],
      "name": "checkExchangeRate",
      "outputs": [
        {
          "internalType": "uint256",
          "name": "",
          "type": "uint256"
        }
      ],
      "payable": false,
      "stateMutability": "view",
      "type": "function"
    },
    {
      "constant": true,
      "inputs": [],
      "name": "tokenBalance",
      "outputs": [
        {
          "internalType": "uint256",
          "name": "",
          "type": "uint256"
        }
      ],
      "payable": false,
      "stateMutability": "view",
      "type": "function"
    }
  ],
  "bytecode": "0x608060405234801561001057600080fd5b506103e8600055610478806100266000396000f3fe60806040526004361061004a5760003560e01c80633610724e1461004f5780635e5c06e21461006e5780636c11bcd3146100c15780639e1a4d19146100de578063eb05e64114610105575b600080fd5b61006c6004803603602081101561006557600080fd5b503561011a565b005b34801561007a57600080fd5b506100a16004803603602081101561009157600080fd5b50356001600160a01b0316610287565b604080519384529115156020840152151582820152519081900360600190f35b61006c600480360360208110156100d757600080fd5b50356102ac565b3480156100ea57600080fd5b506100f361042a565b60408051918252519081900360200190f35b34801561011157600080fd5b506100f361043d565b336000908152600160208190526040909120015460ff1615610167576040805162461bcd60e51b81526020600482015260016024820152603160f81b604482015290519081900360640190fd5b3460005482670de0b6b3a7640000028161017d57fe5b04146101b4576040805162461bcd60e51b81526020600482015260016024820152601960f91b604482015290519081900360640190fd5b336000908152600160208190526040909120810154610100900460ff16151514156101f35733600090815260016020526040902080548201905561024d565b604080516060810182528281526000602080830182815260018486018181523385529281905294909220925183559051919092018054925115156101000261ff001992151560ff1990941693909317919091169190911790555b604080518281529051309133917fddf252ad1be2c89b69c2b068fc378daa952ba7f163c4a11628f55a4df523b3ef9181900360200190a350565b6001602081905260009182526040909120805491015460ff8082169161010090041683565b336000908152600160208190526040909120810154610100900460ff16151514610301576040805162461bcd60e51b81526020600482015260016024820152603160f81b604482015290519081900360640190fd5b336000908152600160208190526040909120015460ff161561034e576040805162461bcd60e51b81526020600482015260016024820152601960f91b604482015290519081900360640190fd5b33600090815260016020526040902054811115610396576040805162461bcd60e51b81526020600482015260016024820152603360f81b604482015290519081900360640190fd5b33600081815260016020526040812080548490039055546108fc90670de0b6b3a76400008402816103c357fe5b049081150290604051600060405180830381858888f193505050501580156103ef573d6000803e3d6000fd5b50604080518281529051339130917fddf252ad1be2c89b69c2b068fc378daa952ba7f163c4a11628f55a4df523b3ef9181900360200190a350565b3360009081526001602052604090205490565b6000549056fea265627a7a7231582087d9990e86f08e53c48b8ca534fbd2d63f6f4759cc3fe3a483f8a29111d4c3aa64736f6c63430005110032",
  "source": "pragma solidity ^0.5.0;\r\n\r\n// import \"../node_modules/openzeppelin-solidity/contracts/token/ERC20/ERC20.sol\";\r\n\r\ncontract ExchangeCurrency{\r\n\tstruct Account {\r\n\t\tuint tokens;\r\n\t\tbool isInGame;\r\n\t\tbool isValid;\r\n\t}\r\n\t\r\n\tevent test (\r\n\t\taddress payable owner1,\r\n\t\taddress owner2,\r\n\t\tbool val\r\n\t);\r\n\t\r\n\tevent Transfer (\r\n\t\taddress indexed from, \r\n\t\taddress indexed to, \r\n\t\tuint256 value\r\n\t);\r\n\t\r\n\tuint private ethToToken; \r\n\tmapping(address => Account) public accounts;\r\n\t\r\n\tconstructor() public {\r\n\t\tethToToken = 1000;\r\n\t}\r\n\t\r\n\tfunction buyTokens(uint nTokens) public payable {\r\n\t\trequire(accounts[msg.sender].isInGame == false, \"1\");\r\n\t\trequire(1 ether * nTokens / ethToToken == msg.value, \"2\");\r\n\t\tif(accounts[msg.sender].isValid == true)\r\n\t\t\taccounts[msg.sender].tokens += nTokens;\r\n\t\telse\r\n\t\t\taccounts[msg.sender] = Account(nTokens, false, true);\r\n\t\temit Transfer(msg.sender, address(this), nTokens);\r\n\t}\r\n\t\r\n\tfunction sellTokens(uint nTokens) public payable {\r\n\t\trequire(accounts[msg.sender].isValid == true, \"1\");\r\n\t\trequire(accounts[msg.sender].isInGame == false, \"2\");\r\n\t\trequire(accounts[msg.sender].tokens >= nTokens, \"3\");\r\n\t\taccounts[msg.sender].tokens -= nTokens;\r\n\t\tmsg.sender.transfer(1 ether * nTokens / ethToToken);\r\n\t\temit Transfer(address(this), msg.sender, nTokens);\r\n\t}\r\n\t\r\n\tfunction checkExchangeRate() public view returns(uint) {\r\n\t\treturn ethToToken;\r\n\t}\r\n\t\r\n\tfunction tokenBalance() public view returns(uint) {\r\n\t\treturn accounts[msg.sender].tokens;\r\n\t}\r\n}",
  "sourcePath": "C:\\Users\\tqy2k\\Desktop\\EECE 571G\\project\\contract_1\\contracts\\ExchangeCurrency.sol",
  "compiler": {
    "name": "solc",
    "version": "0.5.17+commit.d19bba13.Emscripten.clang"
  },
  "schemaVersion": "3.0.23",
  "updatedAt": "2020-04-02T21:07:10.679Z",
  "devdoc": {
    "methods": {}
  },
  "userdoc": {
    "methods": {}
  }
}